{
  "transactions": [
    {
      "hash": "0x47e6b0517222301f4f4e267f5c1f4a8bbc4a75ebd1a755428814145c43135812",
      "transactionType": "CREATE",
      "contractName": "DustAttackTrap",
      "contractAddress": "0x39154082dfee6be851883e0092586616a3cece7d",
      "function": null,
      "arguments": null,
      "transaction": {
        "from": "0x040221e51b6232ad8c9d553b806e0c7a00d1ae4c",
        "gas": "0x6c556",
        "value": "0x0",
        "input": "0x6080604052348015600e575f5ffd5b506105348061001c5f395ff3fe608060405260043610610073575f3560e01c806365cc33eb1161004d57806365cc33eb146101665780639139832d146101905780639a8515ad146101a6578063e5225381146101ce576100d3565b806314b89e24146100d757806327f06a551461010157806344e6e4ce14610129576100d3565b366100d3575f5434116100d1573373ffffffffffffffffffffffffffffffffffffffff167f8e64722131424d7ae3285513babd6f1c3805901c9e344c082594d282b3234dfd34436040516100c892919061028b565b60405180910390a25b005b5f5ffd5b3480156100e2575f5ffd5b506100eb6101f8565b6040516100f891906102b2565b60405180910390f35b34801561010c575f5ffd5b50610127600480360381019061012291906102fd565b6101fe565b005b348015610134575f5ffd5b5061014f600480360381019061014a9190610389565b610207565b60405161015d92919061045e565b60405180910390f35b348015610171575f5ffd5b5061017a61024c565b60405161018791906102b2565b60405180910390f35b34801561019b575f5ffd5b506101a4610251565b005b3480156101b1575f5ffd5b506101cc60048036038101906101c791906102fd565b610253565b005b3480156101d9575f5ffd5b506101e261025d565b6040516101ef91906104de565b60405180910390f35b60015481565b805f8190555050565b5f60605f6040518060400160405280602081526020017f53696d706c696669656420726573706f6e736520666f722074657374696e672e815250915091509250929050565b5f5481565b565b8060018190555050565b606060405180602001604052805f815250905090565b5f819050919050565b61028581610273565b82525050565b5f60408201905061029e5f83018561027c565b6102ab602083018461027c565b9392505050565b5f6020820190506102c55f83018461027c565b92915050565b5f5ffd5b5f5ffd5b6102dc81610273565b81146102e6575f5ffd5b50565b5f813590506102f7816102d3565b92915050565b5f60208284031215610312576103116102cb565b5b5f61031f848285016102e9565b91505092915050565b5f5ffd5b5f5ffd5b5f5ffd5b5f5f83601f84011261034957610348610328565b5b8235905067ffffffffffffffff8111156103665761036561032c565b5b60208301915083602082028301111561038257610381610330565b5b9250929050565b5f5f6020838503121561039f5761039e6102cb565b5b5f83013567ffffffffffffffff8111156103bc576103bb6102cf565b5b6103c885828601610334565b92509250509250929050565b5f8115159050919050565b6103e8816103d4565b82525050565b5f81519050919050565b5f82825260208201905092915050565b8281835e5f83830152505050565b5f601f19601f8301169050919050565b5f610430826103ee565b61043a81856103f8565b935061044a818560208601610408565b61045381610416565b840191505092915050565b5f6040820190506104715f8301856103df565b81810360208301526104838184610426565b90509392505050565b5f81519050919050565b5f82825260208201905092915050565b5f6104b08261048c565b6104ba8185610496565b93506104ca818560208601610408565b6104d381610416565b840191505092915050565b5f6020820190508181035f8301526104f681846104a6565b90509291505056fea264697066735822122073beeea9c8b15c058845ce1733e57f7a78bd4bc8ca819c359294bcdb2c6eefe064736f6c634300081e0033",
        "nonce": "0x4d",
        "chainId": "0x88bb0"
      },
      "additionalContracts": [],
      "isFixedGasLimit": false
    },
    {
      "hash": "0x540e2fd1a98aba4303659eae7a31669e29c0c25b524e5e38b2d137b5008a1593",
      "transactionType": "CALL",
      "contractName": "DustAttackTrap",
      "contractAddress": "0x39154082dfee6be851883e0092586616a3cece7d",
      "function": "setValueThreshold(uint256)",
      "arguments": [
        "10000000000000"
      ],
      "transaction": {
        "from": "0x040221e51b6232ad8c9d553b806e0c7a00d1ae4c",
        "to": "0x39154082dfee6be851883e0092586616a3cece7d",
        "gas": "0xec42",
        "value": "0x0",
        "input": "0x27f06a55000000000000000000000000000000000000000000000000000009184e72a000",
        "nonce": "0x4e",
        "chainId": "0x88bb0"
      },
      "additionalContracts": [],
      "isFixedGasLimit": false
    },
    {
      "hash": "0x8aa42653c1ef30f948096aef8808ab361bea30ea3363eb909d3b5f2ee9131e0a",
      "transactionType": "CALL",
      "contractName": "DustAttackTrap",
      "contractAddress": "0x39154082dfee6be851883e0092586616a3cece7d",
      "function": "setBlockWindow(uint256)",
      "arguments": [
        "5"
      ],
      "transaction": {
        "from": "0x040221e51b6232ad8c9d553b806e0c7a00d1ae4c",
        "to": "0x39154082dfee6be851883e0092586616a3cece7d",
        "gas": "0xfa02",
        "value": "0x0",
        "input": "0x9a8515ad0000000000000000000000000000000000000000000000000000000000000005",
        "nonce": "0x4f",
        "chainId": "0x88bb0"
      },
      "additionalContracts": [],
      "isFixedGasLimit": false
    }
  ],
  "receipts": [
    {
      "status": "0x1",
      "cumulativeGasUsed": "0x5d772f",
      "logs": [],
      "logsBloom": "0x00000000000000000000000000000000000000000000000000000000000000000000000000000000000000000000000000000000000000000000000000000000000000000000000000000000000000000000000000000000000000000000000000000000000000000000000000000000000000000000000000000000000000000000000000000000000000000000000000000000000000000000000000000000000000000000000000000000000000000000000000000000000000000000000000000000000000000000000000000000000000000000000000000000000000000000000000000000000000000000000000000000000000000000000000000000",
      "type": "0x2",
      "transactionHash": "0x47e6b0517222301f4f4e267f5c1f4a8bbc4a75ebd1a755428814145c43135812",
      "transactionIndex": "0x6",
      "blockHash": "0x2982e6f138636949a3f408987eeff7b6a1b0b5ae240074aad11c3fddc44406b9",
      "blockNumber": "0x12b264",
      "gasUsed": "0x53556",
      "effectiveGasPrice": "0x5bea8ab1",
      "from": "0x040221e51b6232ad8c9d553b806e0c7a00d1ae4c",
      "to": null,
      "contractAddress": "0x39154082dfee6be851883e0092586616a3cece7d"
    },
    {
      "status": "0x1",
      "cumulativeGasUsed": "0x31eff5",
      "logs": [],
      "logsBloom": "0x00000000000000000000000000000000000000000000000000000000000000000000000000000000000000000000000000000000000000000000000000000000000000000000000000000000000000000000000000000000000000000000000000000000000000000000000000000000000000000000000000000000000000000000000000000000000000000000000000000000000000000000000000000000000000000000000000000000000000000000000000000000000000000000000000000000000000000000000000000000000000000000000000000000000000000000000000000000000000000000000000000000000000000000000000000000",
      "type": "0x2",
      "transactionHash": "0x540e2fd1a98aba4303659eae7a31669e29c0c25b524e5e38b2d137b5008a1593",
      "transactionIndex": "0x9",
      "blockHash": "0xaeec1ce8b46ce462569787dbc2b56cae9dbc0af6ee5619b0d03229dd54a13149",
      "blockNumber": "0x12b265",
      "gasUsed": "0xab0d",
      "effectiveGasPrice": "0x6005b534",
      "from": "0x040221e51b6232ad8c9d553b806e0c7a00d1ae4c",
      "to": "0x39154082dfee6be851883e0092586616a3cece7d",
      "contractAddress": null
    },
    {
      "status": "0x1",
      "cumulativeGasUsed": "0x329ae8",
      "logs": [],
      "logsBloom": "0x00000000000000000000000000000000000000000000000000000000000000000000000000000000000000000000000000000000000000000000000000000000000000000000000000000000000000000000000000000000000000000000000000000000000000000000000000000000000000000000000000000000000000000000000000000000000000000000000000000000000000000000000000000000000000000000000000000000000000000000000000000000000000000000000000000000000000000000000000000000000000000000000000000000000000000000000000000000000000000000000000000000000000000000000000000000",
      "type": "0x2",
      "transactionHash": "0x8aa42653c1ef30f948096aef8808ab361bea30ea3363eb909d3b5f2ee9131e0a",
      "transactionIndex": "0xa",
      "blockHash": "0xaeec1ce8b46ce462569787dbc2b56cae9dbc0af6ee5619b0d03229dd54a13149",
      "blockNumber": "0x12b265",
      "gasUsed": "0xaaf3",
      "effectiveGasPrice": "0x6005b534",
      "from": "0x040221e51b6232ad8c9d553b806e0c7a00d1ae4c",
      "to": "0x39154082dfee6be851883e0092586616a3cece7d",
      "contractAddress": null
    }
  ],
  "libraries": [],
  "pending": [],
  "returns": {
    "0": {
      "internal_type": "contract DustAttackTrap",
      "value": "0x39154082dFEE6Be851883E0092586616a3cEce7D"
    }
  },
  "timestamp": 1758034756357,
  "chain": 560048,
  "commit": null
}