{
  "transactions": [
    {
      "hash": "0x2b9203bba27c62dc207532f50835b28f8a7ad09a1a97d1eafd4d4388f9356e0b",
      "transactionType": "CREATE",
      "contractName": "DustAttackTrap",
      "contractAddress": "0x63ce494ec50239d199dbc63c3413e28f670f6e56",
      "function": null,
      "arguments": null,
      "transaction": {
        "from": "0x040221e51b6232ad8c9d553b806e0c7a00d1ae4c",
        "gas": "0x8f92f",
        "value": "0x0",
        "input": "0x6080604052348015600e575f5ffd5b506107398061001c5f395ff3fe608060405260043610610058575f3560e01c806314b89e24146100bc57806327f06a55146100e657806344e6e4ce1461010e57806365cc33eb1461014b5780639a8515ad14610175578063e52253811461019d576100b8565b366100b8575f5434116100b6573373ffffffffffffffffffffffffffffffffffffffff167f8e64722131424d7ae3285513babd6f1c3805901c9e344c082594d282b3234dfd34436040516100ad929190610379565b60405180910390a25b005b5f5ffd5b3480156100c7575f5ffd5b506100d06101c7565b6040516100dd91906103a0565b60405180910390f35b3480156100f1575f5ffd5b5061010c600480360381019061010791906103eb565b6101cd565b005b348015610119575f5ffd5b50610134600480360381019061012f9190610477565b6101d6565b60405161014292919061054c565b60405180910390f35b348015610156575f5ffd5b5061015f61033c565b60405161016c91906103a0565b60405180910390f35b348015610180575f5ffd5b5061019b600480360381019061019691906103eb565b610341565b005b3480156101a8575f5ffd5b506101b161034b565b6040516101be91906105cc565b60405180910390f35b60015481565b805f8190555050565b5f60606002848490501015610225575f6040518060400160405280601181526020017f4e6f20646174612070726f76696465642e00000000000000000000000000000081525091509150610335565b5f5f85855f81811061023a576102396105ec565b5b905060200281019061024c9190610625565b81019061025991906103eb565b91508585600181811061026f5761026e6105ec565b5b90506020028101906102819190610625565b81019061028e91906106d8565b9050807bffffffffffffffffffffffffffffffffffffffffffffffffffffffff1682106102f657600193506040518060400160405280601481526020017f447573742061747461636b2064657465637465640000000000000000000000008152509250610332565b5f93506040518060400160405280601781526020017f4e6f20647573742061747461636b20646574656374656400000000000000000081525092505b50505b9250929050565b5f5481565b8060018190555050565b606060405180602001604052805f815250905090565b5f819050919050565b61037381610361565b82525050565b5f60408201905061038c5f83018561036a565b610399602083018461036a565b9392505050565b5f6020820190506103b35f83018461036a565b92915050565b5f5ffd5b5f5ffd5b6103ca81610361565b81146103d4575f5ffd5b50565b5f813590506103e5816103c1565b92915050565b5f60208284031215610400576103ff6103b9565b5b5f61040d848285016103d7565b91505092915050565b5f5ffd5b5f5ffd5b5f5ffd5b5f5f83601f84011261043757610436610416565b5b8235905067ffffffffffffffff8111156104545761045361041a565b5b6020830191508360208202830111156104705761046f61041e565b5b9250929050565b5f5f6020838503121561048d5761048c6103b9565b5b5f83013567ffffffffffffffff8111156104aa576104a96103bd565b5b6104b685828601610422565b92509250509250929050565b5f8115159050919050565b6104d6816104c2565b82525050565b5f81519050919050565b5f82825260208201905092915050565b8281835e5f83830152505050565b5f601f19601f8301169050919050565b5f61051e826104dc565b61052881856104e6565b93506105388185602086016104f6565b61054181610504565b840191505092915050565b5f60408201905061055f5f8301856104cd565b81810360208301526105718184610514565b90509392505050565b5f81519050919050565b5f82825260208201905092915050565b5f61059e8261057a565b6105a88185610584565b93506105b88185602086016104f6565b6105c181610504565b840191505092915050565b5f6020820190508181035f8301526105e48184610594565b905092915050565b7f4e487b71000000000000000000000000000000000000000000000000000000005f52603260045260245ffd5b5f5ffd5b5f5ffd5b5f5ffd5b5f5f8335600160200384360303811261064157610640610619565b5b80840192508235915067ffffffffffffffff8211156106635761066261061d565b5b60208301925060018202360383131561067f5761067e610621565b5b509250929050565b5f7bffffffffffffffffffffffffffffffffffffffffffffffffffffffff82169050919050565b6106b781610687565b81146106c1575f5ffd5b50565b5f813590506106d2816106ae565b92915050565b5f602082840312156106ed576106ec6103b9565b5b5f6106fa848285016106c4565b9150509291505056fea264697066735822122004a069ec8c91651d2ec76468a4e6ceaad08b3cd237696705c8aaef891045958264736f6c634300081e0033",
        "nonce": "0x44",
        "chainId": "0x88bb0"
      },
      "additionalContracts": [],
      "isFixedGasLimit": false
    },
    {
      "hash": "0xafd8853a72b1366a73f6fa64e89b8ad9101f65a07501f4d990c41f23dc9df130",
      "transactionType": "CALL",
      "contractName": "DustAttackTrap",
      "contractAddress": "0x63ce494ec50239d199dbc63c3413e28f670f6e56",
      "function": "setValueThreshold(uint256)",
      "arguments": [
        "10000000000000"
      ],
      "transaction": {
        "from": "0x040221e51b6232ad8c9d553b806e0c7a00d1ae4c",
        "to": "0x63ce494ec50239d199dbc63c3413e28f670f6e56",
        "gas": "0xec23",
        "value": "0x0",
        "input": "0x27f06a55000000000000000000000000000000000000000000000000000009184e72a000",
        "nonce": "0x45",
        "chainId": "0x88bb0"
      },
      "additionalContracts": [],
      "isFixedGasLimit": false
    },
    {
      "hash": "0x11744ddbb43489deb85ec50c0b461b93e38410e32b10d2b30a6f4729d512f6e2",
      "transactionType": "CALL",
      "contractName": "DustAttackTrap",
      "contractAddress": "0x63ce494ec50239d199dbc63c3413e28f670f6e56",
      "function": "setBlockWindow(uint256)",
      "arguments": [
        "5"
      ],
      "transaction": {
        "from": "0x040221e51b6232ad8c9d553b806e0c7a00d1ae4c",
        "to": "0x63ce494ec50239d199dbc63c3413e28f670f6e56",
        "gas": "0xfa23",
        "value": "0x0",
        "input": "0x9a8515ad0000000000000000000000000000000000000000000000000000000000000005",
        "nonce": "0x46",
        "chainId": "0x88bb0"
      },
      "additionalContracts": [],
      "isFixedGasLimit": false
    }
  ],
  "receipts": [
    {
      "status": "0x1",
      "cumulativeGasUsed": "0xc0460",
      "logs": [],
      "logsBloom": "0x00000000000000000000000000000000000000000000000000000000000000000000000000000000000000000000000000000000000000000000000000000000000000000000000000000000000000000000000000000000000000000000000000000000000000000000000000000000000000000000000000000000000000000000000000000000000000000000000000000000000000000000000000000000000000000000000000000000000000000000000000000000000000000000000000000000000000000000000000000000000000000000000000000000000000000000000000000000000000000000000000000000000000000000000000000000",
      "type": "0x2",
      "transactionHash": "0x2b9203bba27c62dc207532f50835b28f8a7ad09a1a97d1eafd4d4388f9356e0b",
      "transactionIndex": "0x6",
      "blockHash": "0x722391f7f9ab3cda9eac35e9e2ee62f3f48a8c60794eb8e370b5bb967eda666c",
      "blockNumber": "0x12ad84",
      "gasUsed": "0x6e711",
      "effectiveGasPrice": "0x440b0cf2",
      "from": "0x040221e51b6232ad8c9d553b806e0c7a00d1ae4c",
      "to": null,
      "contractAddress": "0x63ce494ec50239d199dbc63c3413e28f670f6e56"
    },
    {
      "status": "0x1",
      "cumulativeGasUsed": "0xcaf56",
      "logs": [],
      "logsBloom": "0x00000000000000000000000000000000000000000000000000000000000000000000000000000000000000000000000000000000000000000000000000000000000000000000000000000000000000000000000000000000000000000000000000000000000000000000000000000000000000000000000000000000000000000000000000000000000000000000000000000000000000000000000000000000000000000000000000000000000000000000000000000000000000000000000000000000000000000000000000000000000000000000000000000000000000000000000000000000000000000000000000000000000000000000000000000000",
      "type": "0x2",
      "transactionHash": "0xafd8853a72b1366a73f6fa64e89b8ad9101f65a07501f4d990c41f23dc9df130",
      "transactionIndex": "0x7",
      "blockHash": "0x722391f7f9ab3cda9eac35e9e2ee62f3f48a8c60794eb8e370b5bb967eda666c",
      "blockNumber": "0x12ad84",
      "gasUsed": "0xaaf6",
      "effectiveGasPrice": "0x440b0cf2",
      "from": "0x040221e51b6232ad8c9d553b806e0c7a00d1ae4c",
      "to": "0x63ce494ec50239d199dbc63c3413e28f670f6e56",
      "contractAddress": null
    },
    {
      "status": "0x1",
      "cumulativeGasUsed": "0xd5a5f",
      "logs": [],
      "logsBloom": "0x00000000000000000000000000000000000000000000000000000000000000000000000000000000000000000000000000000000000000000000000000000000000000000000000000000000000000000000000000000000000000000000000000000000000000000000000000000000000000000000000000000000000000000000000000000000000000000000000000000000000000000000000000000000000000000000000000000000000000000000000000000000000000000000000000000000000000000000000000000000000000000000000000000000000000000000000000000000000000000000000000000000000000000000000000000000",
      "type": "0x2",
      "transactionHash": "0x11744ddbb43489deb85ec50c0b461b93e38410e32b10d2b30a6f4729d512f6e2",
      "transactionIndex": "0x8",
      "blockHash": "0x722391f7f9ab3cda9eac35e9e2ee62f3f48a8c60794eb8e370b5bb967eda666c",
      "blockNumber": "0x12ad84",
      "gasUsed": "0xab09",
      "effectiveGasPrice": "0x440b0cf2",
      "from": "0x040221e51b6232ad8c9d553b806e0c7a00d1ae4c",
      "to": "0x63ce494ec50239d199dbc63c3413e28f670f6e56",
      "contractAddress": null
    }
  ],
  "libraries": [],
  "pending": [],
  "returns": {
    "0": {
      "internal_type": "contract DustAttackTrap",
      "value": "0x63cE494ec50239D199DBC63C3413e28F670F6E56"
    }
  },
  "timestamp": 1758018363015,
  "chain": 560048,
  "commit": null
}