{
  "transactions": [
    {
      "hash": "0x8a22f07c466e6623626f732729d4e1845b88a80efae6d8b1a7e6b1bd9b6c2ac2",
      "transactionType": "CREATE",
      "contractName": "DustAttackTrap",
      "contractAddress": "0x017dbb6366d9e33b29168c783dc7252954c482e3",
      "function": null,
      "arguments": null,
      "transaction": {
        "from": "0x040221e51b6232ad8c9d553b806e0c7a00d1ae4c",
        "gas": "0xa26f5",
        "value": "0x0",
        "input": "0x6080604052348015600e575f5ffd5b5061084c8061001c5f395ff3fe60806040526004361061007e575f3560e01c8063706cc6471161004d578063706cc6471461019b57806392a96a82146101c55780639a8515ad146101ed578063e522538114610215576100de565b806314b89e24146100e257806327f06a551461010c57806344e6e4ce1461013457806365cc33eb14610171576100de565b366100de575f5434116100dc573373ffffffffffffffffffffffffffffffffffffffff167f8e64722131424d7ae3285513babd6f1c3805901c9e344c082594d282b3234dfd34436040516100d3929190610464565b60405180910390a25b005b5f5ffd5b3480156100ed575f5ffd5b506100f661023f565b604051610103919061048b565b60405180910390f35b348015610117575f5ffd5b50610132600480360381019061012d91906104d6565b610245565b005b34801561013f575f5ffd5b5061015a60048036038101906101559190610562565b61024e565b604051610168929190610637565b60405180910390f35b34801561017c575f5ffd5b506101856103a7565b604051610192919061048b565b60405180910390f35b3480156101a6575f5ffd5b506101af6103ac565b6040516101bc919061069b565b60405180910390f35b3480156101d0575f5ffd5b506101eb60048036038101906101e691906106de565b6103d9565b005b3480156101f8575f5ffd5b50610213600480360381019061020e91906104d6565b61042c565b005b348015610220575f5ffd5b50610229610436565b604051610236919061075b565b60405180910390f35b60025481565b805f8190555050565b5f60605f848490500361029b575f6040518060400160405280601181526020017f4e6f20646174612070726f76696465642e000000000000000000000000000000815250915091506103a0565b5f5f905084845f8181106102b2576102b161077b565b5b90506020028101906102c491906107b4565b8101906102d191906104d6565b905060015f9054906101000a90047bffffffffffffffffffffffffffffffffffffffffffffffffffffffff167bffffffffffffffffffffffffffffffffffffffffffffffffffffffff16811061036257600192506040518060400160405280601481526020017f447573742061747461636b206465746563746564000000000000000000000000815250915061039e565b5f92506040518060400160405280601781526020017f4e6f20647573742061747461636b20646574656374656400000000000000000081525091505b505b9250929050565b5f5481565b60015f9054906101000a90047bffffffffffffffffffffffffffffffffffffffffffffffffffffffff1681565b8060015f6101000a8154817bffffffffffffffffffffffffffffffffffffffffffffffffffffffff02191690837bffffffffffffffffffffffffffffffffffffffffffffffffffffffff16021790555050565b8060028190555050565b606060405180602001604052805f815250905090565b5f819050919050565b61045e8161044c565b82525050565b5f6040820190506104775f830185610455565b6104846020830184610455565b9392505050565b5f60208201905061049e5f830184610455565b92915050565b5f5ffd5b5f5ffd5b6104b58161044c565b81146104bf575f5ffd5b50565b5f813590506104d0816104ac565b92915050565b5f602082840312156104eb576104ea6104a4565b5b5f6104f8848285016104c2565b91505092915050565b5f5ffd5b5f5ffd5b5f5ffd5b5f5f83601f84011261052257610521610501565b5b8235905067ffffffffffffffff81111561053f5761053e610505565b5b60208301915083602082028301111561055b5761055a610509565b5b9250929050565b5f5f60208385031215610578576105776104a4565b5b5f83013567ffffffffffffffff811115610595576105946104a8565b5b6105a18582860161050d565b92509250509250929050565b5f8115159050919050565b6105c1816105ad565b82525050565b5f81519050919050565b5f82825260208201905092915050565b8281835e5f83830152505050565b5f601f19601f8301169050919050565b5f610609826105c7565b61061381856105d1565b93506106238185602086016105e1565b61062c816105ef565b840191505092915050565b5f60408201905061064a5f8301856105b8565b818103602083015261065c81846105ff565b90509392505050565b5f7bffffffffffffffffffffffffffffffffffffffffffffffffffffffff82169050919050565b61069581610665565b82525050565b5f6020820190506106ae5f83018461068c565b92915050565b6106bd81610665565b81146106c7575f5ffd5b50565b5f813590506106d8816106b4565b92915050565b5f602082840312156106f3576106f26104a4565b5b5f610700848285016106ca565b91505092915050565b5f81519050919050565b5f82825260208201905092915050565b5f61072d82610709565b6107378185610713565b93506107478185602086016105e1565b610750816105ef565b840191505092915050565b5f6020820190508181035f8301526107738184610723565b905092915050565b7f4e487b71000000000000000000000000000000000000000000000000000000005f52603260045260245ffd5b5f5ffd5b5f5ffd5b5f5ffd5b5f5f833560016020038436030381126107d0576107cf6107a8565b5b80840192508235915067ffffffffffffffff8211156107f2576107f16107ac565b5b60208301925060018202360383131561080e5761080d6107b0565b5b50925092905056fea2646970667358221220c367dde3491bcaa232cad71ca1a7dca57f24b08500fd6f80a8cbf348465faa1b64736f6c634300081e0033",
        "nonce": "0x40",
        "chainId": "0x88bb0"
      },
      "additionalContracts": [],
      "isFixedGasLimit": false
    },
    {
      "hash": "0x3a4cd9ca593f8d57848e4c6a543eb2f210d54c567f6017da2262b8f9c6efcbc4",
      "transactionType": "CALL",
      "contractName": "DustAttackTrap",
      "contractAddress": "0x017dbb6366d9e33b29168c783dc7252954c482e3",
      "function": "setValueThreshold(uint256)",
      "arguments": [
        "10000000000000"
      ],
      "transaction": {
        "from": "0x040221e51b6232ad8c9d553b806e0c7a00d1ae4c",
        "to": "0x017dbb6366d9e33b29168c783dc7252954c482e3",
        "gas": "0xec42",
        "value": "0x0",
        "input": "0x27f06a55000000000000000000000000000000000000000000000000000009184e72a000",
        "nonce": "0x41",
        "chainId": "0x88bb0"
      },
      "additionalContracts": [],
      "isFixedGasLimit": false
    },
    {
      "hash": "0x65d702f7a17f10bc7270d5e9b054eea126373cfe3b902eb6c68357a2bf679d38",
      "transactionType": "CALL",
      "contractName": "DustAttackTrap",
      "contractAddress": "0x017dbb6366d9e33b29168c783dc7252954c482e3",
      "function": "setCountThreshold(uint224)",
      "arguments": [
        "100"
      ],
      "transaction": {
        "from": "0x040221e51b6232ad8c9d553b806e0c7a00d1ae4c",
        "to": "0x017dbb6366d9e33b29168c783dc7252954c482e3",
        "gas": "0xec50",
        "value": "0x0",
        "input": "0x92a96a820000000000000000000000000000000000000000000000000000000000000064",
        "nonce": "0x42",
        "chainId": "0x88bb0"
      },
      "additionalContracts": [],
      "isFixedGasLimit": false
    },
    {
      "hash": "0x03be9b75cb89ee4efdb267da8df507ab59499ac2bf329a22a93e4ae7588bbc52",
      "transactionType": "CALL",
      "contractName": "DustAttackTrap",
      "contractAddress": "0x017dbb6366d9e33b29168c783dc7252954c482e3",
      "function": "setBlockWindow(uint256)",
      "arguments": [
        "5"
      ],
      "transaction": {
        "from": "0x040221e51b6232ad8c9d553b806e0c7a00d1ae4c",
        "to": "0x017dbb6366d9e33b29168c783dc7252954c482e3",
        "gas": "0xfa02",
        "value": "0x0",
        "input": "0x9a8515ad0000000000000000000000000000000000000000000000000000000000000005",
        "nonce": "0x43",
        "chainId": "0x88bb0"
      },
      "additionalContracts": [],
      "isFixedGasLimit": false
    }
  ],
  "receipts": [
    {
      "status": "0x1",
      "cumulativeGasUsed": "0x97fb06",
      "logs": [],
      "logsBloom": "0x00000000000000000000000000000000000000000000000000000000000000000000000000000000000000000000000000000000000000000000000000000000000000000000000000000000000000000000000000000000000000000000000000000000000000000000000000000000000000000000000000000000000000000000000000000000000000000000000000000000000000000000000000000000000000000000000000000000000000000000000000000000000000000000000000000000000000000000000000000000000000000000000000000000000000000000000000000000000000000000000000000000000000000000000000000000",
      "type": "0x2",
      "transactionHash": "0x8a22f07c466e6623626f732729d4e1845b88a80efae6d8b1a7e6b1bd9b6c2ac2",
      "transactionIndex": "0x10",
      "blockHash": "0x79984517c9e0d1879ee54984a4192a40834449c84f5cf602d020d98df0999de5",
      "blockNumber": "0x12ad7e",
      "gasUsed": "0x7cf33",
      "effectiveGasPrice": "0x5fe96c1d",
      "from": "0x040221e51b6232ad8c9d553b806e0c7a00d1ae4c",
      "to": null,
      "contractAddress": "0x017dbb6366d9e33b29168c783dc7252954c482e3"
    },
    {
      "status": "0x1",
      "cumulativeGasUsed": "0x98a613",
      "logs": [],
      "logsBloom": "0x00000000000000000000000000000000000000000000000000000000000000000000000000000000000000000000000000000000000000000000000000000000000000000000000000000000000000000000000000000000000000000000000000000000000000000000000000000000000000000000000000000000000000000000000000000000000000000000000000000000000000000000000000000000000000000000000000000000000000000000000000000000000000000000000000000000000000000000000000000000000000000000000000000000000000000000000000000000000000000000000000000000000000000000000000000000",
      "type": "0x2",
      "transactionHash": "0x3a4cd9ca593f8d57848e4c6a543eb2f210d54c567f6017da2262b8f9c6efcbc4",
      "transactionIndex": "0x11",
      "blockHash": "0x79984517c9e0d1879ee54984a4192a40834449c84f5cf602d020d98df0999de5",
      "blockNumber": "0x12ad7e",
      "gasUsed": "0xab0d",
      "effectiveGasPrice": "0x5fe96c1d",
      "from": "0x040221e51b6232ad8c9d553b806e0c7a00d1ae4c",
      "to": "0x017dbb6366d9e33b29168c783dc7252954c482e3",
      "contractAddress": null
    },
    {
      "status": "0x1",
      "cumulativeGasUsed": "0x99512a",
      "logs": [],
      "logsBloom": "0x00000000000000000000000000000000000000000000000000000000000000000000000000000000000000000000000000000000000000000000000000000000000000000000000000000000000000000000000000000000000000000000000000000000000000000000000000000000000000000000000000000000000000000000000000000000000000000000000000000000000000000000000000000000000000000000000000000000000000000000000000000000000000000000000000000000000000000000000000000000000000000000000000000000000000000000000000000000000000000000000000000000000000000000000000000000",
      "type": "0x2",
      "transactionHash": "0x65d702f7a17f10bc7270d5e9b054eea126373cfe3b902eb6c68357a2bf679d38",
      "transactionIndex": "0x12",
      "blockHash": "0x79984517c9e0d1879ee54984a4192a40834449c84f5cf602d020d98df0999de5",
      "blockNumber": "0x12ad7e",
      "gasUsed": "0xab17",
      "effectiveGasPrice": "0x5fe96c1d",
      "from": "0x040221e51b6232ad8c9d553b806e0c7a00d1ae4c",
      "to": "0x017dbb6366d9e33b29168c783dc7252954c482e3",
      "contractAddress": null
    },
    {
      "status": "0x1",
      "cumulativeGasUsed": "0x99fc1d",
      "logs": [],
      "logsBloom": "0x00000000000000000000000000000000000000000000000000000000000000000000000000000000000000000000000000000000000000000000000000000000000000000000000000000000000000000000000000000000000000000000000000000000000000000000000000000000000000000000000000000000000000000000000000000000000000000000000000000000000000000000000000000000000000000000000000000000000000000000000000000000000000000000000000000000000000000000000000000000000000000000000000000000000000000000000000000000000000000000000000000000000000000000000000000000",
      "type": "0x2",
      "transactionHash": "0x03be9b75cb89ee4efdb267da8df507ab59499ac2bf329a22a93e4ae7588bbc52",
      "transactionIndex": "0x13",
      "blockHash": "0x79984517c9e0d1879ee54984a4192a40834449c84f5cf602d020d98df0999de5",
      "blockNumber": "0x12ad7e",
      "gasUsed": "0xaaf3",
      "effectiveGasPrice": "0x5fe96c1d",
      "from": "0x040221e51b6232ad8c9d553b806e0c7a00d1ae4c",
      "to": "0x017dbb6366d9e33b29168c783dc7252954c482e3",
      "contractAddress": null
    }
  ],
  "libraries": [],
  "pending": [],
  "returns": {
    "0": {
      "internal_type": "contract DustAttackTrap",
      "value": "0x017DbB6366d9E33b29168c783Dc7252954C482e3"
    }
  },
  "timestamp": 1758018265292,
  "chain": 560048,
  "commit": null
}