{
  "transactions": [
    {
      "hash": "0x59bed209846486569f7863a366c59193dae6afb7344730091434aaea8b0f67e7",
      "transactionType": "CREATE",
      "contractName": "DustAttackTrap",
      "contractAddress": "0x30daa2c2ef4eeb8d434a556f836d2ba2c327ebb1",
      "function": null,
      "arguments": null,
      "transaction": {
        "from": "0x040221e51b6232ad8c9d553b806e0c7a00d1ae4c",
        "gas": "0x93127",
        "value": "0x0",
        "input": "0x6080604052348015600e575f5ffd5b5061076c8061001c5f395ff3fe608060405260043610610073575f3560e01c806365cc33eb1161004d57806365cc33eb146101665780639139832d146101905780639a8515ad146101a6578063e5225381146101ce576100d3565b806314b89e24146100d757806327f06a551461010157806344e6e4ce14610129576100d3565b366100d3575f5434116100d1573373ffffffffffffffffffffffffffffffffffffffff167f8e64722131424d7ae3285513babd6f1c3805901c9e344c082594d282b3234dfd34436040516100c89291906103ac565b60405180910390a25b005b5f5ffd5b3480156100e2575f5ffd5b506100eb6101f8565b6040516100f891906103d3565b60405180910390f35b34801561010c575f5ffd5b506101276004803603810190610122919061041e565b6101fe565b005b348015610134575f5ffd5b5061014f600480360381019061014a91906104aa565b610207565b60405161015d92919061057f565b60405180910390f35b348015610171575f5ffd5b5061017a61036d565b60405161018791906103d3565b60405180910390f35b34801561019b575f5ffd5b506101a4610372565b005b3480156101b1575f5ffd5b506101cc60048036038101906101c7919061041e565b610374565b005b3480156101d9575f5ffd5b506101e261037e565b6040516101ef91906105ff565b60405180910390f35b60015481565b805f8190555050565b5f60606002848490501015610256575f6040518060400160405280601181526020017f4e6f20646174612070726f76696465642e00000000000000000000000000000081525091509150610366565b5f5f85855f81811061026b5761026a61061f565b5b905060200281019061027d9190610658565b81019061028a919061041e565b9150858560018181106102a05761029f61061f565b5b90506020028101906102b29190610658565b8101906102bf919061070b565b9050807bffffffffffffffffffffffffffffffffffffffffffffffffffffffff16821061032757600193506040518060400160405280601481526020017f447573742061747461636b2064657465637465640000000000000000000000008152509250610363565b5f93506040518060400160405280601781526020017f4e6f20647573742061747461636b20646574656374656400000000000000000081525092505b50505b9250929050565b5f5481565b565b8060018190555050565b606060405180602001604052805f815250905090565b5f819050919050565b6103a681610394565b82525050565b5f6040820190506103bf5f83018561039d565b6103cc602083018461039d565b9392505050565b5f6020820190506103e65f83018461039d565b92915050565b5f5ffd5b5f5ffd5b6103fd81610394565b8114610407575f5ffd5b50565b5f81359050610418816103f4565b92915050565b5f60208284031215610433576104326103ec565b5b5f6104408482850161040a565b91505092915050565b5f5ffd5b5f5ffd5b5f5ffd5b5f5f83601f84011261046a57610469610449565b5b8235905067ffffffffffffffff8111156104875761048661044d565b5b6020830191508360208202830111156104a3576104a2610451565b5b9250929050565b5f5f602083850312156104c0576104bf6103ec565b5b5f83013567ffffffffffffffff8111156104dd576104dc6103f0565b5b6104e985828601610455565b92509250509250929050565b5f8115159050919050565b610509816104f5565b82525050565b5f81519050919050565b5f82825260208201905092915050565b8281835e5f83830152505050565b5f601f19601f8301169050919050565b5f6105518261050f565b61055b8185610519565b935061056b818560208601610529565b61057481610537565b840191505092915050565b5f6040820190506105925f830185610500565b81810360208301526105a48184610547565b90509392505050565b5f81519050919050565b5f82825260208201905092915050565b5f6105d1826105ad565b6105db81856105b7565b93506105eb818560208601610529565b6105f481610537565b840191505092915050565b5f6020820190508181035f83015261061781846105c7565b905092915050565b7f4e487b71000000000000000000000000000000000000000000000000000000005f52603260045260245ffd5b5f5ffd5b5f5ffd5b5f5ffd5b5f5f833560016020038436030381126106745761067361064c565b5b80840192508235915067ffffffffffffffff82111561069657610695610650565b5b6020830192506001820236038313156106b2576106b1610654565b5b509250929050565b5f7bffffffffffffffffffffffffffffffffffffffffffffffffffffffff82169050919050565b6106ea816106ba565b81146106f4575f5ffd5b50565b5f81359050610705816106e1565b92915050565b5f602082840312156107205761071f6103ec565b5b5f61072d848285016106f7565b9150509291505056fea26469706673582212206f88108ed5b868c4df5b0c73c27b7f14a3489ac47a36af894c87b84cb934471a64736f6c634300081e0033",
        "nonce": "0x47",
        "chainId": "0x88bb0"
      },
      "additionalContracts": [],
      "isFixedGasLimit": false
    },
    {
      "hash": "0x062f5ab50089e12f7048dcbfe4f4c41b3fc4332803e8556e7c79104b90afdd18",
      "transactionType": "CALL",
      "contractName": "DustAttackTrap",
      "contractAddress": "0x30daa2c2ef4eeb8d434a556f836d2ba2c327ebb1",
      "function": "setValueThreshold(uint256)",
      "arguments": [
        "10000000000000"
      ],
      "transaction": {
        "from": "0x040221e51b6232ad8c9d553b806e0c7a00d1ae4c",
        "to": "0x30daa2c2ef4eeb8d434a556f836d2ba2c327ebb1",
        "gas": "0xec42",
        "value": "0x0",
        "input": "0x27f06a55000000000000000000000000000000000000000000000000000009184e72a000",
        "nonce": "0x48",
        "chainId": "0x88bb0"
      },
      "additionalContracts": [],
      "isFixedGasLimit": false
    },
    {
      "hash": "0x4e1b4924d107b4173c7bdc754669ba7f4dc80e83457c00c41dae6d3635765364",
      "transactionType": "CALL",
      "contractName": "DustAttackTrap",
      "contractAddress": "0x30daa2c2ef4eeb8d434a556f836d2ba2c327ebb1",
      "function": "setBlockWindow(uint256)",
      "arguments": [
        "5"
      ],
      "transaction": {
        "from": "0x040221e51b6232ad8c9d553b806e0c7a00d1ae4c",
        "to": "0x30daa2c2ef4eeb8d434a556f836d2ba2c327ebb1",
        "gas": "0xfa02",
        "value": "0x0",
        "input": "0x9a8515ad0000000000000000000000000000000000000000000000000000000000000005",
        "nonce": "0x49",
        "chainId": "0x88bb0"
      },
      "additionalContracts": [],
      "isFixedGasLimit": false
    }
  ],
  "receipts": [
    {
      "status": "0x1",
      "cumulativeGasUsed": "0x388d07f",
      "logs": [],
      "logsBloom": "0x00000000000000000000000000000000000000000000000000000000000000000000000000000000000000000000000000000000000000000000000000000000000000000000000000000000000000000000000000000000000000000000000000000000000000000000000000000000000000000000000000000000000000000000000000000000000000000000000000000000000000000000000000000000000000000000000000000000000000000000000000000000000000000000000000000000000000000000000000000000000000000000000000000000000000000000000000000000000000000000000000000000000000000000000000000000",
      "type": "0x2",
      "transactionHash": "0x59bed209846486569f7863a366c59193dae6afb7344730091434aaea8b0f67e7",
      "transactionIndex": "0x24",
      "blockHash": "0x23b2f910d92d6319672f3f36abe99b3526d7df384b15792b0b5dd9e281546a42",
      "blockNumber": "0x12ad89",
      "gasUsed": "0x7121e",
      "effectiveGasPrice": "0x3d15de70",
      "from": "0x040221e51b6232ad8c9d553b806e0c7a00d1ae4c",
      "to": null,
      "contractAddress": "0x30daa2c2ef4eeb8d434a556f836d2ba2c327ebb1"
    },
    {
      "status": "0x1",
      "cumulativeGasUsed": "0x3897b8c",
      "logs": [],
      "logsBloom": "0x00000000000000000000000000000000000000000000000000000000000000000000000000000000000000000000000000000000000000000000000000000000000000000000000000000000000000000000000000000000000000000000000000000000000000000000000000000000000000000000000000000000000000000000000000000000000000000000000000000000000000000000000000000000000000000000000000000000000000000000000000000000000000000000000000000000000000000000000000000000000000000000000000000000000000000000000000000000000000000000000000000000000000000000000000000000",
      "type": "0x2",
      "transactionHash": "0x062f5ab50089e12f7048dcbfe4f4c41b3fc4332803e8556e7c79104b90afdd18",
      "transactionIndex": "0x25",
      "blockHash": "0x23b2f910d92d6319672f3f36abe99b3526d7df384b15792b0b5dd9e281546a42",
      "blockNumber": "0x12ad89",
      "gasUsed": "0xab0d",
      "effectiveGasPrice": "0x3d15de70",
      "from": "0x040221e51b6232ad8c9d553b806e0c7a00d1ae4c",
      "to": "0x30daa2c2ef4eeb8d434a556f836d2ba2c327ebb1",
      "contractAddress": null
    },
    {
      "status": "0x1",
      "cumulativeGasUsed": "0x38a267f",
      "logs": [],
      "logsBloom": "0x00000000000000000000000000000000000000000000000000000000000000000000000000000000000000000000000000000000000000000000000000000000000000000000000000000000000000000000000000000000000000000000000000000000000000000000000000000000000000000000000000000000000000000000000000000000000000000000000000000000000000000000000000000000000000000000000000000000000000000000000000000000000000000000000000000000000000000000000000000000000000000000000000000000000000000000000000000000000000000000000000000000000000000000000000000000",
      "type": "0x2",
      "transactionHash": "0x4e1b4924d107b4173c7bdc754669ba7f4dc80e83457c00c41dae6d3635765364",
      "transactionIndex": "0x26",
      "blockHash": "0x23b2f910d92d6319672f3f36abe99b3526d7df384b15792b0b5dd9e281546a42",
      "blockNumber": "0x12ad89",
      "gasUsed": "0xaaf3",
      "effectiveGasPrice": "0x3d15de70",
      "from": "0x040221e51b6232ad8c9d553b806e0c7a00d1ae4c",
      "to": "0x30daa2c2ef4eeb8d434a556f836d2ba2c327ebb1",
      "contractAddress": null
    }
  ],
  "libraries": [],
  "pending": [],
  "returns": {
    "0": {
      "internal_type": "contract DustAttackTrap",
      "value": "0x30dAa2C2ef4eeb8D434A556F836d2BA2c327eBB1"
    }
  },
  "timestamp": 1758018421632,
  "chain": 560048,
  "commit": null
}